:020000040800F2
:100000004807002091010008CB1700085916000886
:10001000C91700085D0600089F19000800000000CD
:10002000000000000000000000000000CF170008E2
:100030005F06000800000000CD170008D117000877
:10004000AB010008AB010008AB010008AB010008E0
:10005000AB010008AB010008AB010008AB010008D0
:10006000AB010008AB010008AB010008AB010008C0
:10007000AB010008AB010008AB010008AB010008B0
:10008000AB010008AB010008AB010008AB010008A0
:10009000AB010008AB010008AB010008AB01000890
:1000A000AB010008AB010008AB010008AB01000880
:1000B000AB010008AB010008AB010008AB01000870
:1000C000AB010008AB010008AB010008AB01000860
:1000D000AB010008AB010008AB010008AB01000850
:1000E000AB010008AB010008AB01000800F002F80A
:1000F00000F03FF80AA090E8000C82448344AAF183
:100100000107DA4501D100F034F8AFF2090EBAE880
:100110000F0013F0010F18BFFB1A43F0010318473B
:10012000E41A0000041B0000103A24BF78C878C10C
:10013000FAD8520724BF30C830C144BF04680C60ED
:10014000704700000023002400250026103A28BF35
:1001500078C1FBD8520728BF30C148BF0B60704739
:10016000752900F07380002070471FB51FBD10B5C2
:1001700010BD00F0CEF91146FFF7F7FF01F028FCA3
:1001800000F0ECF903B4FFF7F2FF03BC00F0F4F960
:100190000948804709480047FEE7FEE7FEE7FEE71B
:1001A000FEE7FEE7FEE7FEE7FEE7FEE70448054957
:1001B000054A064B7047000023180008ED000008B0
:1001C0004801002048070020480300204803002081
:1001D0000FB41CB5084B06AA7B44694600900598ED
:1001E00000F07FF904460020694600F08DF92046B2
:1001F0001CBC5DF814FB00002D03000070B5044624
:1002000085690068C10601D5302600E02026C007B8
:1002100007D070BDD4E9012130469047206A401CC8
:1002200020626D1EF6D570BD70B5044685690078F4
:10023000C00707D170BDD4E9012120209047206A72
:10024000401C20626D1EF6D570BD00002DE9F04106
:100250000646002410687529314616A510D0AFF364
:100260000080002802DA404213A507E031688A07BF
:1002700001D512A502E0490704D511A5012401E02A
:10028000AFF3008000210A2206F1240709E0B0FB49
:10029000F2FCB0FBF2F302FB1C003030785418463D
:1002A000491C0028F3D123462A463046BDE8F041D8
:1002B00000F0B9B8000000002D0000002B00000085
:1002C000200000002DE9F0474FF0000A894604465F
:1002D000C0F820A02046E1688847002876D025286D
:1002E00006D0D4E901219047206A401C2062F1E742
:1002F000E168204600258847C4F81CA00646002770
:10030000C4F818A02A2E09D0304601F059FB38B3A2
:1003100004EB8708303EC8F8186019E059F8041B50
:10032000204604EB87029161E1688847012F064669
:1003300018D1E069002820DA25F020051DE0D8F862
:10034000180000EB800006EB40003038C8F81800B9
:100350002046E1688847064601F032FB0028EED1CE
:10036000012F0AD02E2E08D12046E16888477F1C35
:100370000646022F45F02005C4DBA069002803DAF9
:10038000404245F00105A061E80701D025F01005C5
:10039000B6B1A6F14100192802D8203645F400650F
:1003A0004A463146204625604D46FFF7D9FE58B1F2
:1003B000012806D0ED1D25F0070000F1080989E7A6
:1003C00004E005F1040985E730468AE7206ABDE8C4
:1003D000F0874FF0000200B5134694469646203948
:1003E00022BFA0E80C50A0E80C50B1F12001BFF4EE
:1003F000F7AF090728BFA0E80C5048BF0CC05DF854
:1004000004EB890028BF40F8042B08BF704748BFA1
:1004100020F8022B11F0804F18BF00F8012B704715
:100420007047704770472DE9F0470D469946924650
:10043000044600F124080168880604D5E06921F02B
:100440001001216000E00120A84201DD471B00E00F
:100450000027A1697A1902EB0900081AA061207827
:10046000C00602D42046FFF7C9FE002608E0D4E902
:1004700001211AF806009047206A401C761C206271
:100480004E45F4DB2078C0060AD52046FFF7B6FEBD
:1004900006E0D4E9012130209047206A401C206208
:1004A000381EA7F10107F4DC07E0D4E9012118F8B0
:1004B00005009047206A401C2062281EA5F1010516
:1004C000F3DC2046FFF7B0FE2078000602D50220BC
:1004D000BDE8F0870120FBE701694A1C026108784A
:1004E000704700B58FB0CDE9013100210591054974
:1004F0007944CDE9031011466846FFF7E3FE0FB0DB
:1005000000BD0000E5FFFFFF0A6802F8010B0A606A
:100510007047754600F02CF8AE4605006946534614
:1005200020F00700854618B020B5FFF73FFEBDE874
:1005300020404FF000064FF000074FF000084FF04A
:10054000000B21F00701AC46ACE8C009ACE8C009DB
:10055000ACE8C009ACE8C0098D46704710B5044648
:10056000AFF300802046BDE81040FFF70BBE00004F
:1005700000487047E400002001491820ABBEFEE7A8
:10058000260002007047000070B5044600688168CC
:10059000C943C90717D1816821F00101816000F0CA
:1005A000AFFB05460AE000BF00F0AAFB401B022893
:1005B00004D920688068C043C00706D020688068DE
:1005C000C043C007F0D0002070BDA06A40F010000A
:1005D000A062E06A40F00100E062012070BD00000E
:1005E000F8B500260446009600688168C943C9072B
:1005F0002DD0816841F001018160164816490068DC
:10060000B0FBF1F000E0401E00900028FBD100F0AC
:1006100077FB054616E000BF00F072FB401B022886
:1006200010D920688068C043C0070BD0A06A40F092
:100630001000A062E06A40F00100E06284F82460EB
:100640000120F8BD20688068C043C007E4D10020C5
:10065000F8BD00001000002040420F00FEE7704788
:1006600072B6FEE7F8B50024009490F824202546E1
:10067000012A12D0012280F824204A681F23072A69
:100680000DD20668776B521E02EB820293409F43A5
:100690000B6893401F43776319E00220F8BD06689A
:1006A0000D2A0AD2376BD21F02EB820293409F437E
:1006B0000B6893401F43376309E0F76A0D3A02EB7A
:1006C000820293409F430B6893401F43F7620A687E
:1006D000072306680A2A0AD3F7680A3A02EB42029D
:1006E00093409F438B6893401F43F76008E037694E
:1006F00002EB420293409F438B6893401F43376154
:100700000A68102A01D0112A20D1124B02689A429D
:1007100017D193681B0219D4936843F400039360C4
:100720000968102912D10C490C4A0968B1FBF2F191
:1007300001EB8101490000E0491E00910029FBD135
:1007400004E0816A41F020018162012480F8245094
:100750002046F8BD002401401000002040420F0058
:100760000068C06C704700002DE9F0414FF00007B1
:1007700004003D467ED0A06A002628B9E66284F8CF
:100780002460204600F07EF82046FFF7FDFEA16AB7
:10079000C90600D420B1A06A40F01000A06269E050
:1007A000A16A21F4885141F00201A1626268E16905
:1007B000237B0A4347EA43010A43A1684FF4807749
:1007C000B94209D0012907D05FF0000194F814C0A4
:1007D000BCF1010F02D00AE03946F7E7F3B1A36A92
:1007E00043F02003A362E36A43F00103E36223685A
:1007F000D3F804C02CF4694C4CEA010CC3F804C0D3
:1008000021688B68DFF870C003EA0C0313438B6028
:10081000A168B9420BD0012909D00CE0DFF85CC017
:10082000A3690CEB43330B4343F40061DFE7218AF8
:100830000D05A5F580152168CB6A23F470032B43C1
:10084000CB62216889680E4B1940914208D1E6625B
:10085000A16A21F0020141F00101A162BDE8F0812D
:10086000A06A20F0020040F01000A062E06A40F0B0
:100870000100E0620120F1E7FDF7E1FF00E0FFFF8A
:10088000FE0E1FFF00B585B000210091019102917D
:10089000039100680E49884218D10E48816941F4DD
:1008A00000718161816901F400710491816941F0F5
:1008B000040181618069694600F00400049002200F
:1008C000009003200190044800F018F905B000BD25
:1008D0000024014000100240000801402DE9F843C7
:1008E00000270D460446009700F00AFA804620686B
:1008F0008168C90508D5A06A40F02000A06284F88C
:1009000024700120BDE8F8834168C90503D4C06A9A
:1009100010F4700F2AD0022000F082FA3B490968D7
:10092000B1FBF0F62068036939490B424FEA6101D7
:100930004FEAA1121FD1C3684FEA611C13EA0C0FE2
:1009400019D103690B4225D1C068104222D114206D
:1009500023E0681C0AD02DB100F0D2F9A0EB08000A
:10096000A84203D920680068800725D52068006860
:100970008007EED52DE003690B4202D1C168114218
:1009800006D0026923490A4206D1C068084203D151
:10099000542002E0292000E0FC204643009816E0A5
:1009A000681C11D02DB100F0ABF9A0EB0800A842F3
:1009B0000AD90098B04207D2A06A40F00400A062B1
:1009C00084F8247003209DE70098401C0090B042FA
:1009D000E6D321686FF012000860A06A40F400704E
:1009E000A06220688068C0F3424007280CD1207BB9
:1009F00050B9A06A20F48070A062A06AC00403D439
:100A0000A06A40F00100A06200207BE710000020F7
:100A1000244992244992240070B5044690F8240099
:100A200001280DD0012084F824002046FFF7D8FDCE
:100A300002004FF0000005D084F82400104670BD7D
:100A4000022070BDA16A40F20123994341F48071F4
:100A5000A1621F4D23681F49AB4218D10E6816F4DE
:100A6000702F14D0A66A46F48016A6620E6876052A
:100A700005D5A66A26F4005646F48056A662A66AF4
:100A8000F6040AD5E66A26F00606E66206E0A66ADD
:100A900026F48016A6625E68E9E7E06284F8240026
:100AA0006FF00200186020688368C3F34243072B8D
:100AB00005D1A84208D1096811F4702F04D08168CB
:100AC00041F480118160B9E7816841F4A001F9E740
:100AD000002801400424014070B5044600F010F9DC
:100AE0000546601C02D004480078044400F008F970
:100AF000401BA042FAD370BD040000202DE9F84F3E
:100B0000DFF8B8910024A9F1040B23460F2709F15F
:100B1000040AABF1040EC9E00125A5402A40AA420F
:100B20007DD1674ED1F804C0ACEB0608B44532D095
:100B300014DCBCF1030F3AD009DCBCF1000F2AD061
:100B4000BCF1010F1CD0BCF1020F31D11DE0BCF192
:100B5000110F17D0BCF1120F2AD119E0B8F5881F78
:100B600019D006DCB8F5803F15D0B8F5801F1FD12D
:100B700011E0B8F5001F0ED0B8F5041F18D10AE037
:100B8000CB6815E0CB681B1D12E0CB6808330FE083
:100B9000CB680C330CE08B682BB1012B4FF00803B2
:100BA00003D0456104E0042302E0056100E0002376
:100BB000FF2A01D8064601E000F104064FEA840549
:100BC00001D9A5F12005D6F8008007FA05FC28EA2E
:100BD0000C0803FA05F548EA0508C6F800804D68D8
:100BE000ED0062D5374DAE6946F00106AE61AD69E4
:100BF00024F0030605F001050095334D06EB050CC6
:100C0000DCF80850A607360F07FA06F825EA0805AB
:100C1000DFF8B880404503D14FF0000817E044E00A
:100C2000DFF8AC80404502D14FF001080FE0DFF85B
:100C3000A480404502D14FF0020808E0DFF8988018
:100C4000404502D14FF0030801E04FF0040808FAD4
:100C500006F848EA0508CCF808804D68D9F8006025
:100C6000ED024D4601D5164300E096432E604D68D7
:100C7000DAF80060AD02554601D5164300E0964310
:100C80002E604D68DBF80060AD035D4601D516436C
:100C900000E096432E604D68DEF80060ED03754677
:100CA00001D5164300E096432E60641C0D682A4669
:100CB000E5407FF431AFBDE8F88F00000804014043
:100CC0000000111000100240000001400008014027
:100CD000000C0140001001400014014080680840F1
:100CE00000D001207047C26821EA02030A4043EAAB
:100CF0000241016170470AB1016170470904FBE7D5
:100D000001488068704700000400002002488168A4
:100D1000027811448160704704000020074810B534
:100D2000016841F010010160032000F067F80F2016
:100D300000F006F800F024F8002010BD002002406A
:100D400070B50D4D04464FF47A712878B1FBF0F080
:100D50000A490968B1FBF0F000F0B0FB48B9102C6B
:100D600007D200222146501E00F028F800206C60B7
:100D700070BD012070BD00000400002010000020A4
:100D80000C4808B5816941F001018161816901F078
:100D900001010091C16941F08051C161C06900F059
:100DA000805000900448416821F0E06141F00071FA
:100DB000416008BD0010024000000140F0B40E4B3D
:100DC0001B680C46C3F30223C3F10705042D00D9A9
:100DD0000425191D072901D2002300E0DB1E01268E
:100DE00006FA05F1491E214099409E40761E1640A4
:100DF0003143F0BC00F0D4BD0CED00E0064900F03A
:100E0000070208684FF6FF03184040EA0220034A31
:100E100010430860704700000CED00E00000FA0588
:100E200010B501460020234C012922D0022939D0D7
:100E300010291DD161682268D20119D51E48C1F35D
:100E40008342C903805C0AD561681B4AC1F34041F3
:100E5000921E515C194AB2FBF1F1484301E0184976
:100E600048436168490203D440000321B0FBF1F01C
:100E700010BD226AC2F30121012903D1920701D5D5
:100E8000C80310BD022905D1626A920702D549F64E
:100E9000404010BD0329FCD121688903F9D54FF2E8
:100EA000244010BD00F0B4F86168C1F38131491CE1
:100EB0004900DBE700100240DC1B000800127A004A
:100EC00000093D002DE9F0470F46050061D0434E73
:100ED000306800F00700B84209D2306820F00700FF
:100EE00038433060306800F00700B84251D12868BC
:100EF0003B4C810712D5400703D5606840F4E060A1
:100F000060602878000703D5606840F46050606036
:100F10006068A96820F0F000084360602878C00786
:100F200028D06868012810D02168022810D08907CD
:100F300000292EDA616821F0030101436160FFF7A7
:100F4000DFFE804641F288390DE021688903EFE732
:100F50008901EDE7FFF7D4FEA0EB0801494502D96E
:100F60000320BDE8F0876068696800F00C00B0EB12
:100F7000810FEFD1306800F00700B8420BD930681C
:100F800020F0070038433060306800F00700B842B6
:100F900001D00120E5E72878400705D56068E968B9
:100FA00020F4E060084360602878000706D5606898
:100FB000296920F4605040EAC100606000F038F810
:100FC0006168084AC1F30311515CC84006490860D2
:100FD00006480068FFF7B4FE0020C2E70020024088
:100FE00000100240EC1B0008100000200800002048
:100FF0000448054900684968044AC1F30221515C6C
:10100000C84070471000002000100240FC1B000880
:101010000448054900684968044AC1F3C221515C8B
:10102000C84070471000002000100240FC1B000860
:101030000E4A51680E4801F00C03042B11D0082B06
:101040000FD10C48C1F38343C903C05C0AD5516872
:10105000084AC1F34041921E515C054A5043B0FB1F
:10106000F1F0704704494843704700000010024007
:1010700000127A00CA1B000800093D002DE9F84F54
:10108000040070D02078C04DC00749D06868C0F314
:101090008100012807D06868C0F38100022809D1C7
:1010A0006868C00306D52868800339D560680028C1
:1010B000E7D035E06068B0F5803F0BD010B1B0F5F7
:1010C000A02F11D0286820F480302860286820F4F0
:1010D000802002E0286840F480302860606890B189
:1010E000FFF70EFE06460AE0286840F480202860DC
:1010F000F0E700BFFFF704FE801B642873D8286860
:101100008003F7D50CE0FFF7FBFD064605E000BFC6
:10111000FFF7F6FD801B6428F0D828688003F7D419
:1011200020789A4E80074FF001094FF0000839D51A
:10113000686810F00C0F07D06868C0F381000228BF
:1011400009D16868C00306D42868800714D52069CF
:10115000012808D110E02069B0B1C6F80090FFF76F
:10116000CFFD074605E00AE1FFF7CAFDC01B0228D4
:10117000C4D828688007F7D52868616920F0F8008E
:1011800040EAC10028600DE0C6F80080FFF7B8FD16
:10119000074604E0FFF7B4FDC01B022823D82868E7
:1011A0008007F7D4207800072CD57948A169D9B1F8
:1011B000C0F80090FFF7A4FD074604E0FFF7A0FD8C
:1011C000C01B02280FD8686A8007F7D571484FF412
:1011D000FA510068B0FBF1F0009000BF0098411E8A
:1011E0000091FAD20EE080E0C0F80080FFF788FDA1
:1011F000074604E0FFF784FDC01B022875D8686A23
:101200008007F7D42078400760D5E8690027C00040
:1012100008D4E86940F08050E861E869012700F0EF
:10122000805000905C480168C90513D4016883466A
:1012300041F480710160FFF763FD824606E000BF64
:10124000FFF75EFDA0EB0A0064284ED8DBF8000033
:10125000C005F5D5E06801280AD008B1052813D0EB
:10126000286A20F001002862286A20F0040002E0C9
:10127000286A40F001002862E06841F2883B98B19A
:10128000FFF73EFD82460BE0286A40F0040028622A
:10129000EEE700BFFFF734FDA0EB0A0159455AD82D
:1012A000286A8007F6D50CE0FFF72AFD824605E0A4
:1012B000FFF726FDA0EB0A0159454CD8286A8007A4
:1012C000F6D41FB1E86920F08050E861E06988B386
:1012D0006968C1F38101022944D00228C6F8608000
:1012E00004D0FFF70DFD044638E034E0FFF708FDB9
:1012F000074604E0FFF704FDC01B02282BD828682E
:101300008001F7D4206AB0F5803F05D16868A168F4
:1013100020F4003008436860D4E908010843696894
:1013200021F4741108436860C6F86090FFF7E8FC88
:10133000044606E025E000BFFFF7E2FC001B0228A0
:1013400009D828688001F7D51BE000BFFFF7D8FC5B
:10135000001B022802D90320BDE8F88F286880010D
:10136000F4D40EE00128F7D06868226A00F48031D6
:10137000914204D1616A00F47010884201D00120CA
:10138000EAE70020E8E700000010024000004242C7
:1013900080044242100000200070004070B504003C
:1013A00009D0606A002540B125616561A56294F8A5
:1013B000510040B10CE0012070BD6068B0F5827F43
:1013C000F4D0E561F2E784F85050204600F040F890
:1013D000022084F851002068016821F0400101607A
:1013E000A088218900F4827001F404410843A18996
:1013F00001F400610843217C01F002010843217DD2
:1014000001F001010843218B01F400710843217FA1
:1014100001F03801084394F8201001F080010843DE
:10142000218D01F40051084321680860A06904215E
:1014300001EA1040216848602068C16921F4006118
:10144000C1616565012084F85100002070BD000075
:1014500010B586B0002100910191029103910068BE
:101460001349884221D11348816941F48051816137
:10147000816901F480510491816941F00401816125
:1014800080690D4C00F004000490B0200090694683
:101490002046FFF733FB40200090022001900320FC
:1014A000039069462046FFF729FB06B010BD0000F7
:1014B00000300140001002400008014010B5401EFD
:1014C000B0F1807F01D3012010BD4FF0E0246061B6
:1014D0000F21601700F064FA0020A061072020614E
:1014E000002010BD70B5040004D094F84100002520
:1014F00010B106E0012070BD84F84050204600F095
:1015000023F8242084F841002068C16821F40051A8
:10151000C160204600F0AEF92068016921F49041D5
:1015200001612068416921F02A0141612068C16898
:1015300041F40051C1606564202084F8410084F8C2
:1015400042006563002070BD30B585B00024009472
:1015500001940294039400681449884224D11448E9
:10156000816941F480418161816901F48041049184
:10157000816941F00401816180690E4D00F0040031
:1015800004904FF40070009002200190032003901B
:1015900069462846FFF7B2FA2815CDE900046946E6
:1015A00028460294FFF7AAFA05B030BD0038014082
:1015B00000100240000801402DE9F843044690F86D
:1015C0004100984616460D46202802D00220BDE86C
:1015D000F88385B17EB100206064212084F8410049
:1015E000FFF78EFBA6848146E684A0682027B0F52D
:1015F000805F02D003E00120E9E7206910B12E46A8
:1016000000250EE000260CE08021204600F08EF937
:10161000A8B9C6B116F8010B21684860E08C401EDD
:10162000E084E08C4B464FF00002CDF800800028AB
:10163000EAD14FF04001204600F078F940B184F83B
:1016400041700320C3E735F8020BC0F30800E3E75D
:1016500084F841700020BAE7FEE700003EB50021A3
:101660001148009101910F4A02910260816001735B
:10167000017501244FF460220461C2614160FFF7EB
:1016800073F808B1FEF7ECFF05200094CDE90140A6
:1016900069460548FEF7E6FF002801D0FEF7E0FFA7
:1016A0003EBD000000240140140000202DE9F0415F
:1016B00086B0002424480094019402940394816924
:1016C00041F010018161816901F01001049181698B
:1016D00041F020018161816901F02001049181695B
:1016E00041F004018161816901F004010491816983
:1016F00041F0080181618069144F00F008004FF447
:1017000000550490002229463846FFF7F4FADFF826
:101710004080002201214046FFF7EDFA00950226A5
:1017200001250396CDE9015469463846FFF7E6F9ED
:1017300003960095CDE9015469464046FFF7DEF96E
:1017400006B0BDE8F081000000100240001001402A
:10175000000C01400D4810B50B49016000214160AB
:101760008160C160016141618161016241628162A8
:101770000A21C162FFF712FE002803D0BDE8104025
:10178000FEF76EBF10BD0000003001404400002095
:101790000C4810B50A4901604FF4E1314160002165
:1017A00081600C22C160C0E904128161C161FFF750
:1017B00099FE002803D0BDE81040FEF751BF10BDD0
:1017C000003801409C000020FEE7FEE770477047AC
:1017D000FFF79CBA10B590B028216846FEF7F9FDD6
:1017E00014210AA8FEF7F5FD022000900120002434
:1017F0000490019407946846FFF740FC08B172B664
:10180000FEE70F20CDE90A040C940D9400210AA8EC
:101810000E94FFF757FB002801D072B6FEE710B018
:1018200010BD704701680C3151E8002F22F490720E
:1018300041E80023002BF5D10168143151E8002F55
:1018400022F0010241E80023002BF5D1016B0129B0
:1018500009D101680C3151E8002F22F0100241E853
:101860000023002BF5D1202180F8421000210163D4
:101870007047000070B5044600680169E26821F411
:101880004051114301612169A0680843616908431F
:101890002168CA6841F20C639A430243CA60206817
:1018A0004169A26921F44071114341611E492068D8
:1018B000884202D1FFF7ACFB01E0FFF799FB00EB98
:1018C000C00101EB0012606864218000B2FBF0F3FC
:1018D000B3FBF1F36FF018067343B2FBF0F5B2FB04
:1018E000F0F605EB8305322303EB0515B5FBF1F5A7
:1018F000B6FBF1F605F0F00505EB0615B2FBF0F6C8
:10190000B2FBF0F0B0FBF1F06FF01802504306EBC1
:10191000800003EB0010B0FBF1F0216800F00F0035
:101920002844886070BD0000003801402DE9F8436C
:10193000984617460D460446089E24E0701C22D0A7
:10194000FFF7DEF9A0EB0800B0421AD8CEB120684C
:10195000C168490717D5802D15D0402D13D00168D7
:10196000C94309070FD4016800254068009020464C
:10197000FFF758FF0820606484F840500120BDE85C
:10198000F8830320FBE72068006835EA000004D0F4
:101990000020B842D2D00020F1E70120F9E7FEE7AD
:1019A0000907090E002804DB00F1E02080F800148C
:1019B000704700F00F0000F1E02080F8141D704720
:1019C00030380A2801D201207047002070470000FB
:1019D0009EB0FFF7A3F9FFF7FDFEFFF767FEFFF7E5
:1019E000B9FE4020012600240327CDE91A06664DE2
:1019F000CDE91C471AA92846FFF780F8FFF7C8FE73
:101A000062494FF4165048600846FFF76BFDFFF738
:101A100025FE0420CDE90607089406A90994284666
:101A2000FFF76CF80122DFF8689157034FF01908AF
:101A300039464846FFF75FF94FF4FA70FFF74CF864
:101A4000002239464846FFF756F952A10DF1080C1D
:101A50000FC98CE80F0064230D2202A94B48FFF741
:101A6000ABFDDFF84091A3464F4D012028604F4861
:101A7000FEF7D2FF0A214D48FEF730FF4B48FEF734
:101A80006FFE80B24FF41671484340F6FF76B0FB0C
:101A9000F6F0A9F8000099F802004C46800713D12F
:101AA000022028604148FEF7B7FF0A213F48FEF7B1
:101AB00015FF3E48FEF754FE80B2C0EB00108000D8
:101AC000B0FBF6F000F0FF088DF800B05A208DF85A
:101AD00001002088A146010A8DF802108DF803004C
:101AE00040445A318DF804800844274C8DF8050095
:101AF00010212046FFF7F2F80128F9D00025EA4628
:101B000000261AF8057020212046FFF7E7F8002884
:101B1000F9D0380601D5012200E0002240212046FC
:101B2000FFF7E9F87806070E20212046FFF7D6F8E0
:101B30000128F9D0761C082EE5DB6D1C062DDFDBB5
:101B400001211B48FFF7CFF810212046FFF7C6F808
:101B50000028F9D043464C46B9F8002015A106A844
:101B6000FEF736FB054682B2642306A90748FFF755
:101B700023FD6088AAB2401C6080642306A9034844
:101B8000FFF71AFD70E70000000801409C000020EC
:101B900000100140536C6176652072656164790DB7
:101BA0000A0000000000002034240140140000203E
:101BB000000C0140503D2533756B506120543D258C
:101BC00075430D0A00000000010202030405060728
:101BD00008090A0B0C0D0E0F101001020203040578
:101BE000060708090A0B0C0D0E0F1010000000006C
:101BF00000000000010203040607080900000000BD
:101C000001020304241C000800000020140000004E
:101C100028010008381C00081400002034070000C8
:101C20004401000800000000010000001000000056
:081C30000000000000127A0020
:04000005080000ED02
:00000001FF
