:020000040800F2
:10000000580700209D0100081F160008F113000882
:100010001D16000817060008CF1B0008000000008E
:100020000000000000000000000000001D18000893
:100030001906000800000000871600081F180008B5
:10004000B7010008B7010008B7010008B7010008B0
:10005000B7010008B7010008B7010008B7010008A0
:10006000B7010008B7010008B7010008B701000890
:10007000B7010008B7010008B7010008B701000880
:10008000B7010008B7010008B7010008B701000870
:10009000B7010008B7010008B7010008B701000860
:1000A000B7010008B7010008B7010008B701000850
:1000B000B7010008B7010008B7010008B701000840
:1000C000B7010008B7010008B7010008B701000830
:1000D000B7010008B7010008B7010008B701000820
:1000E000B7010008B7010008B701000800F002F8E6
:1000F00000F045F80AA090E8000C82448344AAF17D
:100100000107DA4501D100F03AF8AFF2090EBAE87A
:100110000F0013F0010F18BFFB1A43F0010318473B
:10012000FC2500001C260000103A24BF78C878C1C6
:10013000FAD8520724BF30C830C144BF04680C60ED
:10014000704700000023002400250026103A28BF35
:1001500078C1FBD8520728BF30C148BF0B60704739
:10016000642900F07980752900F07680782900F004
:10017000AF80002070471FB51FBD10B510BD00F047
:1001800010FA1146FFF7F7FF01F03AFD00F02EFAE2
:1001900003B4FFF7F2FF03BC00F036FA09488047CA
:1001A00009480047FEE7FEE7FEE7FEE7FEE7FEE759
:1001B000FEE7FEE7FEE7FEE704480549054A064B71
:1001C000704700007B180008ED000008580100206F
:1001D0005807002058030020580300200FB41CB516
:1001E000084B06AA7B4469460090059800F0C1F9C7
:1001F00004460020694600F0CFF920461CBC5DF89B
:1002000014FB0000B103000070B504468569006866
:10021000C10601D5302600E02026C00707D070BDFA
:10022000D4E9012130469047206A401C20626D1EAF
:10023000F6D570BD70B5044685690078C00707D152
:1002400070BDD4E9012120209047206A401C206223
:100250006D1EF6D570BD00002DE9F0410646002464
:1002600010687529314616A510D0AFF3008000281C
:1002700002DA404213A507E031688A0701D512A5CA
:1002800002E0490704D511A5012401E0AFF3008085
:1002900000210A2206F1240709E0B0FBF2FCB0FBC2
:1002A000F2F302FB1C00303078541846491C002839
:1002B000F3D123462A463046BDE8F04100F0FAB8B3
:1002C000000000002D0000002B00000020000000B6
:1002D00070B504460D4621461068AFF300802188B2
:1002E000090502D50F4A7A4402E00E4A7A440E32DA
:1002F000002104F1240305E000F00F060009965DDB
:100300005E54491C0028F7D120780023000704D54B
:10031000702D02D009B1022311322046BDE8704091
:1003200000F0C8B8F82300002DE9F05F89460446C4
:100330004FF0000ADFF824B1FB44C0F820A02046AB
:10034000E168884700287DD0252806D0D4E901211E
:100350009047206A401C2062F1E700255F46204656
:10036000E16888472028064607DB312E05D2B819F8
:1003700010F8200C08B10543F1E7A80701D525F0D6
:100380000405C4F81CA00027C4F818A02A2E09D020
:10039000304601F02DFC38B304EB8708303EC8F836
:1003A000186019E059F8041B204604EB870291619C
:1003B000E1688847012F064618D1E069002820DA55
:1003C00025F020051DE0D8F8180000EB800006EBB2
:1003D00040003038C8F818002046E16888470646D3
:1003E00001F006FC0028EED1012F0AD02E2E08D1F4
:1003F0002046E16888477F1C0646022F45F020050D
:10040000C4DBA069002803DA404245F00105A06181
:10041000E80701D025F01005A6B1A6F14100192882
:1004200002D8203645F400654A463146204625600C
:100430004D46FFF795FE60B1012807D0ED1D25F070
:10044000070000E007E000F1080978E705F104097A
:1004500075E730467AE7206ABDE8F09FCE230000BA
:100460004FF0000200B5134694469646203922BF4D
:10047000A0E80C50A0E80C50B1F12001BFF4F7AF98
:10048000090728BFA0E80C5048BF0CC05DF804EB7A
:10049000890028BF40F8042B08BF704748BF20F8E8
:1004A000022B11F0804F18BF00F8012B70477047E6
:1004B000704770472DE9F0470D469946924604462D
:1004C00000F124080168880604D5E06921F01001D4
:1004D000216000E00120A84201DD471B00E0002769
:1004E000A1697A1902EB0900081AA0612078C006F8
:1004F00002D42046FFF788FE002608E0D4E9012157
:100500001AF806009047206A401C761C20624E456F
:10051000F4DB2078C0060AD52046FFF775FE06E01A
:10052000D4E9012130209047206A401C2062381E07
:10053000A7F10107F4DC07E0D4E9012118F8050070
:100540009047206A401C2062281EA5F10105F3DCBB
:100550002046FFF76FFE2078000602D50220BDE896
:10056000F0870120FBE7000001694A1C026108785E
:10057000704700B58FB0CDE90131002105910549E3
:100580007944CDE9031011466846FFF7CDFE0FB060
:1005900000BD0000E5FFFFFF0A6802F8010B0A60DA
:1005A0007047754600F02CF8AE4605006946534684
:1005B00020F00700854618B020B5FFF7FDFDBDE827
:1005C00020404FF000064FF000074FF000084FF0BA
:1005D000000B21F00701AC46ACE8C009ACE8C0094B
:1005E000ACE8C009ACE8C0098D46704710B50446B8
:1005F000AFF300802046BDE81040FFF7C9BD000002
:1006000000487047F800002001491820ABBEFEE703
:10061000260002007047FEE7704772B6FEE7000052
:1006200070B5044600F010F90546601C02D004487D
:100630000078044400F008F9401BA042FAD370BDD2
:10064000000000202DE9F84FDFF8B8910024A9F14F
:10065000040B23460F2709F1040AABF1040EC9E08D
:100660000125A5402A40AA427DD1674ED1F804C099
:10067000ACEB0608B44532D014DCBCF1030F3AD021
:1006800009DCBCF1000F2AD0BCF1010F1CD0BCF179
:10069000020F31D11DE0BCF1110F17D0BCF1120FC8
:1006A0002AD119E0B8F5881F19D006DCB8F5803FCB
:1006B00015D0B8F5801F1FD111E0B8F5001F0ED07E
:1006C000B8F5041F18D10AE0CB6815E0CB681B1DF4
:1006D00012E0CB6808330FE0CB680C330CE08B687A
:1006E0002BB1012B4FF0080303D0456104E0042334
:1006F00002E0056100E00023FF2A01D8064601E080
:1007000000F104064FEA840501D9A5F12005D6F8C9
:10071000008007FA05FC28EA0C0803FA05F548EA08
:100720000508C6F800804D68ED0062D5374DAE690A
:1007300046F00106AE61AD6924F0030605F001053F
:100740000095334D06EB050CDCF80850A607360F74
:1007500007FA06F825EA0805DFF8B880404503D116
:100760004FF0000817E044E0DFF8AC80404502D1CC
:100770004FF001080FE0DFF8A480404502D14FF0B0
:10078000020808E0DFF89880404502D14FF00308E6
:1007900001E04FF0040808FA06F848EA0508CCF82A
:1007A00008804D68D9F80060ED024D4601D516432A
:1007B00000E096432E604D68DAF80060AD025546C1
:1007C00001D5164300E096432E604D68DBF80060CB
:1007D000AD035D4601D5164300E096432E604D689B
:1007E000DEF80060ED03754601D5164300E0964340
:1007F0002E60641C0D682A46E5407FF431AFBDE8E9
:10080000F88F0000080401400000111000100240A1
:100810000000014000080140000C014000100140B0
:10082000001401408068084000D001207047C26871
:1008300021EA02030A4043EA0241016170470AB11A
:10084000016170470904FBE70148806870470000B8
:1008500000000020024881680278114481607047DE
:1008600000000020074810B5016841F01001016048
:10087000032000F067F80F2000F006F800F024F8DD
:10088000002010BD0020024070B50D4D04464FF40D
:100890007A712878B1FBF0F00A490968B1FBF0F0F1
:1008A00000F060FB48B9102C07D200222146501EF0
:1008B00000F028F800206C6070BD012070BD0000C1
:1008C000000000200C0000200C4808B5816941F0B0
:1008D00001018161816901F001010091C16941F06B
:1008E0008051C161C06900F08050009004484168A7
:1008F00021F0E06141F00071416008BD001002404C
:1009000000000140F0B40E4B1B680C46C3F30223F9
:10091000C3F10705042D00D90425191D072901D2AB
:10092000002300E0DB1E012606FA05F1491E2140E6
:1009300099409E40761E16403143F0BC01F048B904
:100940000CED00E0064900F0070208684FF6FF03CF
:10095000184040EA0220034A104308607047000034
:100960000CED00E00000FA052DE9F0470F46050008
:1009700061D0434E306800F00700B84209D23068B9
:1009800020F0070038433060306800F00700B842BC
:1009900051D128683B4C810712D5400703D56068C8
:1009A00040F4E06060602878000703D5606840F498
:1009B000605060606068A96820F0F00008436060E3
:1009C0002878C00728D06868012810D0216802283C
:1009D00010D0890700292EDA616821F00301014354
:1009E0006160FFF731FF804641F288390DE02168F0
:1009F0008903EFE78901EDE7FFF726FFA0EB080188
:100A0000494502D90320BDE8F0876068696800F0B5
:100A10000C00B0EB810FEFD1306800F00700B84256
:100A20000BD9306820F0070038433060306800F0A0
:100A30000700B84201D00120E5E72878400705D536
:100A40006068E96820F4E060084360602878000787
:100A500006D56068296920F4605040EAC1006060F2
:100A600000F038F86168084AC1F30311515CC840CE
:100A70000649086006480068FFF706FF0020C2E745
:100A80000020024000100240CA2600080C0000208E
:100A9000040000200448054900684968044AC1F37D
:100AA0000221515CC84070470C0000200010024039
:100AB000DA2600080448054900684968044AC1F379
:100AC000C221515CC84070470C0000200010024059
:100AD000DA2600080E4A51680E4801F00C03042B78
:100AE00011D0082B0FD10C48C1F38343C903C05C5C
:100AF0000AD55168084AC1F34041921E515C054A2B
:100B00005043B0FBF1F07047044948437047000080
:100B10000010024000127A00BA26000800093D00C9
:100B20002DE9F84F040070D02078C04DC00749D09F
:100B30006868C0F38100012807D06868C0F38100AD
:100B4000022809D16868C00306D52868800339D512
:100B500060680028E7D035E06068B0F5803F0BD0D2
:100B600010B1B0F5A02F11D0286820F48030286093
:100B7000286820F4802002E0286840F48030286053
:100B8000606890B1FFF760FE06460AE0286840F40E
:100B900080202860F0E700BFFFF756FE801B642826
:100BA00073D828688003F7D50CE0FFF74DFE0646A2
:100BB00005E000BFFFF748FE801B6428F0D82868D6
:100BC0008003F7D420789A4E80074FF001094FF048
:100BD000000839D5686810F00C0F07D06868C0F3BA
:100BE0008100022809D16868C00306D428688007FC
:100BF00014D52069012808D110E02069B0B1C6F8E9
:100C00000090FFF721FE074605E00AE1FFF71CFE12
:100C1000C01B0228C4D828688007F7D528686169F6
:100C200020F0F80040EAC10028600DE0C6F800801E
:100C3000FFF70AFE074604E0FFF706FEC01B022886
:100C400023D828688007F7D4207800072CD5794866
:100C5000A169D9B1C0F80090FFF7F6FD074604E09E
:100C6000FFF7F2FDC01B02280FD8686A8007F7D58E
:100C700071484FF4FA510068B0FBF1F0009000BFEA
:100C80000098411E0091FAD20EE080E0C0F800808A
:100C9000FFF7DAFD074604E0FFF7D6FDC01B022888
:100CA00075D8686A8007F7D42078400760D5E8696E
:100CB0000027C00008D4E86940F08050E861E86986
:100CC000012700F0805000905C480168C90513D4EA
:100CD0000168834641F480710160FFF7B5FD8246EB
:100CE00006E000BFFFF7B0FDA0EB0A0064284ED875
:100CF000DBF80000C005F5D5E06801280AD008B18E
:100D0000052813D0286A20F001002862286A20F004
:100D1000040002E0286A40F001002862E06841F225
:100D2000883B98B1FFF790FD82460BE0286A40F0BF
:100D300004002862EEE700BFFFF786FDA0EB0A0182
:100D400059455AD8286A8007F6D50CE0FFF77CFD94
:100D5000824605E0FFF778FDA0EB0A0159454CD823
:100D6000286A8007F6D41FB1E86920F08050E86156
:100D7000E06988B36968C1F38101022944D002287F
:100D8000C6F8608004D0FFF75FFD044638E034E029
:100D9000FFF75AFD074604E0FFF756FDC01B022887
:100DA0002BD828688001F7D4206AB0F5803F05D1A0
:100DB0006868A16820F4003008436860D4E908013D
:100DC0000843696821F4741108436860C6F86090AC
:100DD000FFF73AFD044606E025E000BFFFF734FDCB
:100DE000001B022809D828688001F7D51BE000BF46
:100DF000FFF72AFD001B022802D90320BDE8F88F67
:100E000028688001F4D40EE00128F7D06868226ACF
:100E100000F48031914204D1616A00F4701088427C
:100E200001D00120EAE70020E8E7000000100240BE
:100E300000004242800442420C000020007000404A
:100E400070B5040009D0606A002540B12561656174
:100E5000A56294F8510040B10CE0012070BD6068BB
:100E6000B0F5827FF4D0E561F2E784F85050204677
:100E700000F040F8022084F851002068016821F059
:100E800040010160A088218900F4827001F40441CE
:100E90000843A18901F400610843217C01F00201AB
:100EA0000843217D01F001010843218B01F4007109
:100EB0000843217F01F03801084394F8201001F025
:100EC00080010843218D01F4005108432168086026
:100ED000A069042101EA1040216848602068C169C6
:100EE00021F40061C1616565012084F85100002092
:100EF00070BD000030B585B00024009401940294C8
:100F0000039400681449884223D11448816941F44C
:100F100080518161816901F480510491816941F0BE
:100F20000401816180690E4D00F004000490A0204E
:100F30000090022001900320039069462846FFF7A5
:100F400081FB4020CDE90004694628460294FFF762
:100F500079FB05B030BD00000030014000100240B8
:100F60000008014010B5401EB0F1807F01D3012080
:100F700010BD4FF0E02460610F21601700F028FEE3
:100F80000020A06107202061002010BD70B590F8FE
:100F90003C20012A26D0012480F83C40022280F81F
:100FA0003D2003685A689D6822F070060A68324343
:100FB0005A600D4B02689A4208D0B2F1804F05D0BA
:100FC0000A4B9A4202D00A4B9A4204D1496825F052
:100FD00080031943916080F83D40002180F83C1067
:100FE000084670BD022070BD002C01400004004086
:100FF0000008004070B5044690F83C0000260D46FD
:1010000001280FD0012084F83C006AB1042A1DD0C9
:10101000082A2FD00C2A3FD00126002084F83C005B
:10102000304670BD022070BD206800F071FC206861
:10103000816941F0080181612068816921F0040122
:101040008161206881692A69114311E0206800F0FC
:1010500087FC2068816941F40061816120688169B1
:1010600021F480618161206881692A6941EA022155
:101070008161D2E7206800F09FFC2068C16941F0DF
:101080000801C1612068C16921F00401C1612068C3
:10109000C1692A69114311E0206800F0B9FC206899
:1010A000C16941F40061C1612068C16921F48061B6
:1010B000C1612068C1692A6941EA0221C161ACE7C6
:1010C00010B5040003D094F83D0010B107E00120F2
:1010D00010BD002084F83C00204600F01FF80220DC
:1010E00084F83D00211D206800F0C8FB012084F831
:1010F000460084F83E0084F83F0084F8400084F8FD
:10110000410084F8420084F8430084F8440084F8E5
:10111000450084F83D00002010BD000000B585B0FA
:10112000002100910191029103910068B0F1804F7C
:1011300018D10D48C16941F00101C161C16901F0D7
:1011400001010491816941F004018161806969466E
:1011500000F00400049002200090019003900348E6
:10116000FFF770FA05B000BD001002400008014012
:1011700010B50446022249B104290ED0082913D023
:1011800094F84100012816D0012010BD94F83E00CB
:101190000128F9D184F83E200FE094F83F0001289F
:1011A000F2D184F83F2008E094F840000128EBD108
:1011B00084F8402001E084F841200122206800F0FA
:1011C00099FB0F492068884203D1426C42F40042E7
:1011D00042642068884208D0B0F1804F05D00949A8
:1011E000884202D00849884204D1816801F0070191
:1011F000062903D0016841F001010160002010BD03
:10120000002C0140000400400008004030B50446B6
:101210000D460068002200F06DFB174B41F21111E2
:1012200020688A10984209D1036A0B4206D1036AEA
:10123000134203D1436C23F4004343642068036AE0
:101240000B4206D1016A114203D1016821F001016C
:10125000016001203DB1042D08D0082D09D084F88B
:101260004100002030BD84F83E00FAE784F83F00DA
:10127000F7E784F84000F4E7002C014070B5040063
:1012800004D094F84100002510B106E0012070BDA3
:1012900084F84050204600F023F8242084F84100D0
:1012A0002068C16821F40051C160204600F0FAFBBB
:1012B0002068016921F4904101612068416921F0B1
:1012C0002A0141612068C16841F40051C160656430
:1012D000202084F8410084F842006563002070BD3E
:1012E00030B585B000240094019402940394006802
:1012F0001449884224D11448816941F480418161B4
:10130000816901F480410491816941F004018161A6
:1013100080690E4D00F0040004904FF400700090BE
:10132000022001900320039069462846FFF78AF9BE
:101330002815CDE90004694628460294FFF782F992
:1013400005B030BD003801400010024000080140E7
:101350002DE9F843044690F84100984616460D469C
:10136000202802D00220BDE8F88385B17EB100209C
:101370006064212084F84100FFF766FAA684814664
:10138000E684A0682027B0F5805F02D003E001204A
:10139000E9E7206910B12E4600250EE000260CE09A
:1013A0008021204600F0DAFBA8B9C6B116F8010B7F
:1013B00021684860E08C401EE084E08C4B464FF092
:1013C0000002CDF800800028EAD14FF0400120460D
:1013D00000F0C4FB40B184F841700320C3E735F846
:1013E000020BC0F30800E3E784F841700020BAE77D
:1013F000FEE7000070B50A4C00218022251D402325
:1014000022FA01F6064201D0226000E02A60236041
:101410002B60491CC9B20829F2D323602B6070BD30
:10142000100C0140044A8020106040211160121D00
:101430001060116070470000100C014003498020CB
:1014400008604022091F0A6008607047140C0140C0
:101450002DE9F04385B000243048009401940294B3
:101460000394816941F010018161816901F01001EB
:101470000491816941F020018161816901F02001BD
:101480000491816941F004018161816901F00401E5
:101490000491816941F0080181618069204F00F069
:1014A00008004FF400550490002229463846FFF703
:1014B000C6F9DFF87080002210214046FFF7BFF91F
:1014C000DFF86490002203214846FFF7B8F9009541
:1014D000022601250396CDE9015469463846FFF7F7
:1014E000B1F805208DE8310069464046FFF7AAF8BB
:1014F0001020CDE90005CDE9024669464046FFF7D8
:10150000A1F80320CDE90005CDE902466946484629
:10151000FFF798F805B0BDE8F08300000010024026
:101520000010014000080140000C0140104810B5B7
:101530000E4901604FF48271416000218160C160F9
:101540004FF400720161C0E905121022C0E90721C1
:10155000416281620A21C162FFF772FC002803D058
:10156000BDE81040FFF759B810BD00000030014041
:101570001000002010B58AB0002407941C21684692
:101580000894FEF76DFF16484FF080410160472137
:10159000C0E9011440F28F11C0E903148021816178
:1015A000FFF78EFD08B1FFF738F8079407A90C483C
:1015B0000894FFF7EBFC08B1FFF72FF860200090CC
:1015C000C820CDE901040422694605480494FFF7C8
:1015D00011FD002801D0FFF720F80AB010BD00006F
:1015E000680000200C4810B50A4901604FF4E13151
:1015F0004160002181600C22C160C0E90412816158
:10160000C161FFF73BFE002803D0BDE81040FFF7A3
:1016100004B810BD00380140B0000020FEE7FEE72E
:1016200010B50C4640F0B00000F00BF8102040EA76
:10163000141000F006F804F00F00BDE81040AFF3FE
:10164000008010B50446FFF7EDFE7820FFF7D2FECC
:101650000020FFF7CFFE2046FFF7CCFEBDE810408C
:10166000FFF7ECBE10B50446FFF7DCFE7820FFF76D
:10167000C1FE4020FFF7BEFE2046FFF7BBFEBDE8DF
:101680001040FFF7DBBE704770B5002404F1B000D6
:10169000C0B2FFF7D6FF0020FFF7D3FF1020FFF7FF
:1016A000D0FF00250020FFF7DDFF6D1CEDB2802D7F
:1016B000F8D3641CE4B2082CE8D370BD08B500214F
:1016C0004FF4FA720020401C9042FCD3491C914216
:1016D000F8D33048816941F008018161806900F0E8
:1016E000080000902C48016821F07F4101600168EA
:1016F00041F0EE4101602848402110300160802116
:101700000160AE20FFF79DFFD520FFF79AFF8020F4
:10171000FFF797FFA820FFF794FF3F20FFF791FF07
:10172000D320FFF78EFF0020FFF78BFF4020FFF74D
:1017300088FFA120FFF785FFC820FFF782FFDA208E
:10174000FFF77FFF1220FFF77CFF8120FFF779FF73
:10175000CF20FFF776FFD920FFF773FFF120FFF7C7
:1017600070FFDB20FFF76DFF3020FFF76AFFA4203A
:10177000FFF767FFA620FFF764FF8D20FFF761FFEB
:101780001420FFF75EFFAF20FFF75BFFBDE80840C6
:10179000FFF77ABF00100240000C01402DE9F05F16
:1017A00016460D4680464FF0FF3BDFF86CA02EE05A
:1017B000A0F120015F2900D320202038C7B2E80023
:1017C000A0F108094FEA4800801E09F0FF01C0B2ED
:1017D000FFF726FF00240AEB0717385DFFF742FFEB
:1017E000641CE4B2082CF8D30BEB480009F0FF01AD
:1017F000C0B2FFF715FF00243819007AFFF732FF57
:10180000641CE4B2082CF7D36D1CEDB2761C307862
:101810000028CDD1BDE8F09FC82000087047FFF731
:1018200019B810B590B028216846FEF719FE1421AA
:101830000AA8FEF715FE02200024CDE900040120CD
:1018400004900004CDE907404FF4E0100990684689
:10185000FFF766F908B172B6FEE70F20CDE90A047A
:101860000C940D9400210AA80E94FFF77DF800282F
:1018700001D072B6FEE710B010BD7047F0B5026837
:10188000194B1A4C1A4D4FF08047984205D0B84278
:1018900003D0A04201D0A84203D122F070064A68CA
:1018A0003243984205D0B84203D0A04201D0A842AA
:1018B00003D122F44074CA6822434C6922F08002AA
:1018C000224302608A68C2620A688262984201D139
:1018D00009690163012141610169C90703D00169F7
:1018E00021F001010161F0BD002C01400004004025
:1018F0000008004010B501F01F030121046A99405F
:101900008C430462016A9A401143016210BD0000D9
:1019100030B5036A026A22F00102026242688469F9
:1019200024F073050C682C4323F002058B682B43CD
:101930000A4DA8420BD123F00805CB6822F440726F
:101940002B434D6923F0040315438A692A434260FF
:10195000846149684163036230BD0000002C01408E
:1019600030B5026A036A23F0100303624368846996
:101970000D6824F4E64444EA05248D6822F0200230
:1019800042EA05120B4DA8420ED1CD6822F080022A
:1019900042EA05124D6923F4406343EA85038D69E9
:1019A00022F0400243EA8503436084614968816311
:1019B000026230BD002C014030B5036A026A22F495
:1019C000807202624268C46923F4007324F07305D4
:1019D0000C682C438D6843EA05230C4DA8420ED1B8
:1019E000CD6823F4006343EA05234D6922F4405295
:1019F00042EA05128D6923F4806342EA05124260CF
:101A0000C4614968C163036230BD0000002C01401D
:101A100030B5046A026A22F4805202624268C369E5
:101A20000D6823F4E64343EA05238D6824F400544B
:101A300044EA0534064DA84204D14D6922F480429F
:101A400042EA85124260C36149680164046230BDA4
:101A5000002C014001680C3151E8002F22F49072F3
:101A600041E80023002BF5D10168143151E8002F23
:101A700022F0010241E80023002BF5D1016B01297E
:101A800009D101680C3151E8002F22F0100241E821
:101A90000023002BF5D1202180F8421000210163A2
:101AA0007047000070B5044600680169E26821F4DF
:101AB0004051114301612169A068084361690843ED
:101AC0002168CA6841F20C639A430243CA602068E5
:101AD0004169A26921F44071114341611E492068A6
:101AE000884202D1FEF7E6FF01E0FEF7D3FF00EBEC
:101AF000C00101EB0012606864218000B2FBF0F3CA
:101B0000B3FBF1F36FF018067343B2FBF0F5B2FBD1
:101B1000F0F605EB8305322303EB0515B5FBF1F574
:101B2000B6FBF1F605F0F00505EB0615B2FBF0F695
:101B3000B2FBF0F0B0FBF1F06FF01802504306EB8F
:101B4000800003EB0010B0FBF1F0216800F00F0003
:101B50002844886070BD0000003801402DE9F8433A
:101B6000984617460D460446089E24E0701C22D075
:101B7000FEF76AFEA0EB0800B0421AD8CEB120688A
:101B8000C168490717D5802D15D0402D13D00168A5
:101B9000C94309070FD4016800254068009020461A
:101BA000FFF758FF0820606484F840500120BDE82A
:101BB000F8830320FBE72068006835EA000004D0C2
:101BC0000020B842D2D00020F1E70120F9E7FEE77B
:101BD0000907090E002804DB00F1E02080F800145A
:101BE000704700F00F0000F1E02080F8141D7047EE
:101BF00030380A2801D201207047002070470000C9
:101C00009CB0FEF72FFEFFF70CFEFFF721FCFFF75D
:101C1000E9FCDD494FF4165048600846FFF72EFBFB
:101C2000FFF784FCFFF7A6FCD84C012210212046C8
:101C3000FEF705FE01221146D548FEF700FE0421FD
:101C4000D448FFF7E3FA02200327CDE90007002577
:101C50000295694603952046FEF7F4FCCEA104A840
:101C6000FEF7BCFA82B2642304A9C748FFF770FBF1
:101C7000FFF724FDCCA104A8FEF7B0FA82B26423DA
:101C800004A9C148FFF764FB4FF4FA70FEF7C8FCE3
:101C9000C8A104A8FEF7A2FA82B2642304A9BA4834
:101CA000FFF756FB4FF000081920CDE91608C24691
:101CB000C1464646A020189000250120CDE919050F
:101CC0000320B24C1B9018A92046FEF7BBFC402015
:101CD000CDE9180518A92046FEF7B4FC0022102112
:101CE0002046FEF7ACFD002220212046FEF7A7FD8E
:101CF0000120FEF795FC14950DF1500B159500276A
:101D0000012220212046FEF79AFD0120FEF788FCE3
:101D100040212046FEF786FD30B11BF805208021CA
:101D2000F9400A430BF80520002220212046FEF747
:101D300086FD0120FEF774FC7F1C082FE0DB6D1C84
:101D4000062DDCDB012210212046FEF778FD9DF8F0
:101D500051309DF852209DF853009DF854109D1865
:101D600047183D44EDB25A2B09D19DF85570AF424A
:101D700005D1BDF85200169190FA90FA11E09DF845
:101D80005550CDE90020CDE902159DF850208DA1D8
:101D900004A8FEF723FA82B2642304A97A48FFF765
:101DA000D7FA01212046FEF73DFD90B91E20FEF72F
:101DB00037FC01212046FEF735FD50B9B8F1000F80
:101DC0000ED00020804601212046FEF72BFD002882
:101DD000F9D0042125462046FEF724FD10B113E07A
:101DE0000120EFE71E20FEF71BFC04212846FEF72A
:101DF00019FD48B9179818B30020179004212846F8
:101E0000FEF710FD0028F9D0BAF1000F03D0AAF1B7
:101E1000B400AB2804D216982E2801D2179888B1A6
:101E20005B4F0124224602213846FEF708FD0022BE
:101E300001213846FEF703FDB9F1000F24D01FE061
:101E40000120DAE7524F0024224602213846FEF7ED
:101E5000F6FC012211463846FEF7F1FCB9F1000FFD
:101E60000ED004214B48FFF7D1F9002002900390D7
:101E7000022000900320019069462846FEF7E2FB0D
:101E8000A146B0070FD065E0002002900390022029
:101E90000090019069462846FEF7D4FB04213D4896
:101EA000FFF766F9ECE7424651A104A8FEF796F960
:101EB00082B2642304A93448FFF74AFAB8F1000F4C
:101EC0001BD001214EA20846FFF768FC524650A1E4
:101ED0006846FEF783F96A4601210220FFF75EFC9F
:101EE0004FA16846169AFEF779F96A460121032048
:101EF000FFF754FC4CB34DA228E001214FA2084645
:101F0000FFF74CFC524651A16846169BFEF766F956
:101F10006A4601210220FFF741FCA4B1BAF1960FF5
:101F200001D24EA209E0AAF1B400AB2801D34FA21E
:101F300003E016982E2804D34FA201210320FFF7B7
:101F40002DFC50A202E053A2F7E755A20121042084
:101F5000FFF724FCCDE90084524653A104A8169B48
:101F6000FEF73CF982B2642304A90748FFF7F0F9B1
:101F70004FF400515348FEF75AFC761CF6B24FF46A
:101F8000FA70FEF74DFB95E6B00000200008014016
:101F9000000C0140680000204F4C454420696E69E8
:101FA000742E2E2E0D0A00004F4C454420646F6E97
:101FB000650D0A004D617374657220726561647904
:101FC0000D0A0000535049207261773A20253032C3
:101FD00058202530325820253032582025303258AC
:101FE000202530325820253032580D0A00000000DC
:101FF0004F4C4544207570642025640D0A00000094
:10200000546972652023312044657461696C000055
:1020100050726573733A2025756B506100000000A3
:1020200054656D703A20257520430000414C4152A3
:102030004D204143544956450000000054504D5333
:10204000204D6F6E69746F7200000000503A2533A6
:10205000756B506120543A253275430050524553F8
:102060002044414E47455221000000005052455344
:1020700020414C41524D000054454D5020414C41AF
:10208000524D00004D3A4D6F646520413A546573DE
:10209000740000005374617475733A204F4B000054
:1020A0004E6F726D616C0000503D25756B50612064
:1020B000543D257543204D3D256420413D25640D4B
:1020C0000A000000001001400000000000000000B5
:1020D0000000000000000000000000F80000000008
:1020E000000000333000000000100C06100C060049
:1020F000000000000000000040C07840C0784000B0
:10210000043F04043F040400007088FC0830000011
:10211000001820FF211E0000F008F000E018000069
:1021200000211C031E211E0000F008887000000022
:102130001E2123241927211010160E000000000074
:102140000000000000000000000000E01804020091
:10215000000000071820400000020418E000000002
:102160000040201807000000404080F08040400000
:102170000202010F01020200000000F00000000056
:102180000101011F0101010000000000000000002A
:1021900080B070000000000000000000000000009F
:1021A0000001010101010101000000000000000028
:1021B00000303000000000000000000080601804C3
:1021C000006018060100000000E010080810E000A0
:1021D000000F102020100F00001010F80000000069
:1021E0000020203F202000000070080808887000B0
:1021F0000030282422213000003008888848300030
:102200000018202020110E000000C02010F800004F
:1022100000070424243F240000F8088888080800E8
:102220000019212020110E0000E0108888180000FD
:10223000000F112020110E0000380808C8380800CF
:102240000000003F0000000000708808088870004F
:10225000001C222121221C0000E010080810E000D0
:102260000000312222110F00000000C0C000000059
:10227000000000303000000000000080000000007E
:102280000000806000000000000080402010080076
:10229000000102040810200040404040404040003F
:1022A000040404040404040000081020408000001A
:1022B0000020100804020100007048080808F0001F
:1022C0000000003036010000C030C828E810E000EF
:1022D0000718272423140B000000C038E00000007A
:1022E000203C23020227382008F8888888700000E4
:1022F000203F202020110E00C030080808083800B8
:10230000071820202010080008F808080810E0002E
:10231000203F202020100F0008F88888E8081000CF
:10232000203F20202320180008F88888E8081000A3
:10233000203F200003000000C030080808380000DB
:1023400007182020221E020008F808000008F808DC
:10235000203F210101213F20000808F80808000063
:102360000020203F2020000000000808F808080096
:10237000C08080807F00000008F888C0281808000E
:10238000203F20012638200008F808000000000047
:10239000203F20202020300008F8F800F8F808003E
:1023A000203F003F003F200008F830C00008F80838
:1023B000203F200007183F00E01008080810E00048
:1023C0000F10202020100F0008F808080808F0005F
:1023D000203F210101010000E01008080810E00082
:1023E0000F18242438504F0008F888888888700017
:1023F000203F2000030C30200070880808083800B7
:102400000038202121221C00180808F808081800AC
:102410000000203F2000000008F808000008F8082D
:10242000001F202020201F000878880000C83808DE
:10243000000007380E010000F80800F80008F80056
:10244000033C0700073C03000818688080681808F0
:1024500020302C03032C30200838C800C83808006E
:102460000000203F2000000010080808C8380800BD
:102470002038262120201800000000FE0202020061
:102480000000007F40404000000C30C00000000011
:10249000000000010638C00000020202FE00000039
:1024A000004040407F0000000000040202020400DF
:1024B000000000000000000000000000000000001C
:1024C0008080808080808080000202040000000004
:1024D00000000000000000000000808080800000FC
:1024E0000019242222223F2008F8008080000000EA
:1024F000003F112020110E000000008080800000AD
:10250000000E112020201100000000808088F800BB
:10251000000E112020103F200000808080800000ED
:10252000001F222222221300008080F08888881851
:102530000020203F2020000000008080808080005C
:10254000006B94949493600008F8008080800000F1
:10255000203F210000203F200080989800000000CC
:102560000020203F202000000000008098980000FC
:1025700000C08080807F000008F80000808080001C
:10258000203F24022D302000000808F80000000041
:102590000020203F202000008080808080808000FC
:1025A000203F20003F20003F80800080808000008E
:1025B000203F210000203F2000008080808000001C
:1025C000001F202020201F0080800080800000004D
:1025D00080FFA12020110E0000000080808080007C
:1025E000000E112020A0FF8080808000808080006D
:1025F00020203F212000010000008080808080009A
:102600000033242424241900008080E0808000000E
:102610000000001F2020000080800000008080005B
:10262000001F202020103F208080800000808080BC
:1026300000010E300806010080800080008080804C
:102640000F300C030C300F00008080008080800071
:102650000020312E0E31200080808000008080809C
:1026600080818E701806010000808080808080004C
:102670000021302C2221300000000000807C02026A
:1026800000000000003F404000000000FF0000008C
:1026900000000000FF0000000002027C800000003B
:1026A0000040403F00000000000601010202040457
:1026B00000000000000000000102020304050607FC
:1026C00008090A0B0C0D0E0F10100000000000008E
:1026D00000000102030406070809000000000102CF
:1026E00003043031323334353637383941424344CC
:1026F000454640305800303132333435363738397A
:102700006162636465664030780004000008000080
:102710000000000000020001000010003C2700083B
:102720000000002010000000280100084C270008CD
:1027300010000020480700004401000801000000CC
:0C274000100000000000000000127A00F1
:04000005080000ED02
:00000001FF
